:100000000C942A000C943F000C943F000C943F0089
:100010000C943F000C943F000C943F000C943F0064
:100020000C943F000C943F000C943F000C943F0054
:100030000C943F000C943F000C943F000C943F0044
:100040000C943F000C943F000C943F000C943F0034
:100050000C943F0011241FBECFE5D8E0DEBFCDBF1A
:1000600011E0A0E6B0E0E4E7FAE202C005900D92EC
:10007000A43BB107D9F70E94CC110C9438150C940D
:100080000000EF92FF920F931F937B018C0120E001
:1000900030E040E05FE40E94ED0388238CF0C8016B
:1000A000B70120E030E040E05FE40E94B9010E9427
:1000B0004D049B01AC01205030404040504806C0E8
:1000C000C801B7010E944D049B01AC01B901CA01EE
:1000D0001F910F91FF90EF900895A0E0B0E0E3E74B
:1000E000F0E00C946012DC012B01FA019C9192303B
:1000F00008F439C1EB018881823008F433C19430AF
:1001000069F4843009F02FC111969C91119789816F
:10011000981709F428C1A4E9B0E025C1843009F496
:1001200021C18230A9F4923009F01DC19A01AD01BC
:1001300088E0EA010990AE01E90109929E0181502F
:10014000C1F7E201898111969C918923818308C1BD
:10015000923009F407C112962D903C901397EB0151
:100160008A819B811496AD90BD90CD90DC901797BD
:10017000EC80FD800E811F819101281B390BB90194
:1001800037FF04C066277727621B730B6032710547
:100190000CF061C0121613066CF537014801062EEB
:1001A00004C096948794779467940A94D2F721E0D8
:1001B00030E040E050E004C0220F331F441F551FC1
:1001C0006A95D2F721503040404050402E213F21C7
:1001D00040235123211531054105510521F021E02E
:1001E00030E040E050E079018A01E628F72808294C
:1001F00019293CC0232BD1F1260E371E35014601AB
:10020000062E04C096948794779467940A94D2F744
:1002100021E030E040E050E004C0220F331F441FD3
:10022000551F6A95D2F721503040404050402A2156
:100230003B214C215D21211531054105510521F05E
:1002400021E030E040E050E059016A01A628B728DB
:10025000C828D9280BC0821593052CF01C01AA24AC
:10026000BB24650103C0EE24FF24870111969C91F5
:10027000D20111968C91981709F445C0992339F051
:10028000A80197012A193B094C095D0906C0A6017E
:1002900095012E193F09400B510B57FD08C01182E3
:1002A0003382228224833583468357831DC081E0B5
:1002B00081833382228288279927DC01821B930B5A
:1002C000A40BB50B84839583A683B7830DC0220F3F
:1002D000331F441F551F24833583468357838281F0
:1002E000938101979383828324813581468157814D
:1002F000DA01C9010197A109B1098F5F9F4FAF4F83
:10030000BF4328F30BC0918333822282EA0CFB1C8B
:100310000C1D1D1DE482F5820683178383E0808314
:10032000248135814681578157FF1AC0C901AA2708
:1003300097FDA095BA2F81709070A070B0705695FF
:10034000479537952795822B932BA42BB52B848328
:100350009583A683B7838281938101969383828359
:10036000DF0101C0D201CD01CDB7DEB7E2E10C94CF
:100370007C12A0E2B0E0EFEBF1E00C946C12698328
:100380007A838B839C832D833E834F835887E9E058
:10039000EE2EF12CEC0EFD1ECE010196B7010E944F
:1003A0003E068E010F5E1F4FCE010596B8010E94DA
:1003B0003E068A8991E089278A8BC701B801AE0180
:1003C000475E5F4F0E946D000E946905A096E6E0BF
:1003D0000C948812A0E2B0E0E0EFF1E00C946C1213
:1003E00069837A838B839C832D833E834F835887D5
:1003F000F9E0EF2EF12CEC0EFD1ECE010196B701B7
:100400000E943E068E010F5E1F4FCE010596B80179
:100410000E943E06C701B801AE01475E5F4F0E94D1
:100420006D000E946905A096E6E00C948812A0E297
:10043000B0E0EDE1F2E00C94601269837A838B8383
:100440009C832D833E834F835887CE010196BE0146
:10045000675F7F4F0E943E06CE010596BE016F5E2C
:100460007F4F0E943E069985923088F089898230BC
:10047000C8F0943019F4823051F404C0843029F467
:10048000923081F484E990E0C6C0923049F420E0D3
:100490009A858A89981321E02A87CE010996BBC0E4
:1004A000823049F420E09A858A89981321E02A8BCA
:1004B000CE014196B0C02D843E844F8458886D880B
:1004C0007E888F88988CEE24FF248701AA24BB2481
:1004D000650140E050E060E070E0E0E0F0E0C10184
:1004E00081709070892BE9F0E60CF71C081D191D2E
:1004F0009A01AB012A0D3B1D4C1D5D1D80E090E073
:10050000A0E0B0E0E614F7040805190520F481E046
:1005100090E0A0E0B0E0BA01A901480F591F6A1F9E
:100520007B1FAA0CBB1CCC1CDD1C97FE08C081E005
:1005300090E0A0E0B0E0A82AB92ACA2ADB2A3196C6
:10054000E032F10549F0660C771C881C991C569422
:10055000479437942794C3CFFA85EA892B893C893D
:100560008B859C85280F391F2E5F3F4F17C0CA010E
:1005700081709070892B61F016950795F794E79438
:1005800080E090E0A0E0B0E8E82AF92A0A2B1B2BD3
:1005900076956795579547952F5F3F4F77FDE7CF46
:1005A0000CC0440F551F661F771F17FD4160EE0CEE
:1005B000FF1C001F111F21503040403090E05907B0
:1005C00090E0690790E4790760F32B8F3C8FDB01A3
:1005D000CA018F779070A070B07080349105A1052A
:1005E000B10561F447FD0AC0E114F10401051105EC
:1005F00029F0405C5F4F6F4F7F4F40781A8EFE1797
:1006000011F081E08A8F4D8F5E8F6F8F78A383E02A
:10061000898FCE0149960E946905A096E2E10C946B
:100620007C12A8E1B0E0E7E1F3E00C946812698382
:100630007A838B839C832D833E834F835887B9E0D5
:10064000EB2EF12CEC0EFD1ECE010196B7010E949F
:100650003E068E010F5E1F4FCE010596B8010E9427
:100660003E062985223008F47EC03989323010F4E4
:10067000B8017CC08A859A8989278A87243011F03D
:10068000223031F4231709F06EC064E970E06EC0C7
:10069000343039F41D861E861F86188A1C861B86F8
:1006A00004C0323021F484E08987B7015FC02B8514
:1006B0003C858B899C89281B390B3C872B87ED84D3
:1006C000FE840F851889AD88BE88CF88D88CEA143F
:1006D000FB040C051D0540F4EE0CFF1C001F111F50
:1006E000215030403C872B8720E030E040E050E054
:1006F00080E090E0A0E0B0E460E070E0EA14FB0489
:100700000C051D0540F0282B392B4A2B5B2BEA18D2
:10071000FB080C091D09B695A79597958795EE0CD2
:10072000FF1C001F111F6F5F7F4F6F31710531F785
:10073000DA01C9018F779070A070B0708034910594
:10074000A105B10561F427FD0AC0E114F10401051A
:10075000110529F0205C3F4F4F4F5F4F20782D87C8
:100760003E874F87588BBE01675F7F4FCB010E944A
:1007700069056896EAE00C948412A8E1B0E0E3EC25
:10078000F3E00C946C1269837A838B839C832D83B2
:100790003E834F83588789E0E82EF12CEC0EFD1E36
:1007A000CE010196B7010E943E068E010F5E1F4FDB
:1007B000CE010596B8010E943E068985823040F040
:1007C0008989823028F0C701B8010E94B60601C0AD
:1007D0008FEF6896E6E00C948812A8E1B0E0E3EFB2
:1007E000F3E00C946C1269837A838B839C832D8352
:1007F0003E834F83588789E0E82EF12CEC0EFD1ED6
:10080000CE010196B7010E943E068E010F5E1F4F7A
:10081000CE010596B8010E943E068985823040F0DF
:100820008989823028F0C701B8010E94B60601C04C
:100830008FEF6896E6E00C948812A8E1B0E0E3E25E
:10084000F4E00C946C1269837A838B839C832D83F0
:100850003E834F83588789E0E82EF12CEC0EFD1E75
:10086000CE010196B7010E943E068E010F5E1F4F1A
:10087000CE010596B8010E943E068985823040F07F
:100880008989823028F0C701B8010E94B60601C0EC
:1008900081E06896E6E00C948812ACE0B0E0E3E515
:1008A000F4E00C94701269837A838B839C83CE016D
:1008B0000196BE016B5F7F4F0E943E068D818230A4
:1008C00061F1823050F1843021F48E81882351F11E
:1008D0002EC02F81388537FD20C06E812F31310524
:1008E0001CF06623F9F023C08EE190E0821B930B8D
:1008F00029853A854B855C8504C056954795379583
:1009000027958A95D2F76623B1F05095409530959A
:1009100021953F4F4F4F5F4F0EC020E030E040E049
:1009200050E009C02FEF3FEF4FEF5FE704C020E03A
:1009300030E040E050E8B901CA012C96E2E00C94A6
:100940008C12A8E0B0E0E7EAF4E00C9468127B01B6
:100950008C01611571058105910519F482E0898387
:1009600060C083E089838EE1C82ED12CDC82CB82EB
:10097000ED82FE820F831887C801B7010E941A0515
:10098000FC013197F7FF3BC0222733272E1B3F0B7B
:1009900057016801022E04C0D694C794B794A79457
:1009A0000A94D2F740E050E060E070E081E090E02F
:1009B000A0E0B0E004C0880F991FAA1FBB1F2A95B2
:1009C000D2F70197A109B1098E219F21A023B1235C
:1009D0000097A105B10521F041E050E060E070E032
:1009E0004A295B296C297D294D835E836F83788733
:1009F0008EE190E08E1B9F0B9C838B8312C03097FF
:100A000081F00E2E04C0EE0CFF1C001F111F0A9473
:100A1000D2F7ED82FE820F831887CE1ADF0ADC82BE
:100A2000CB821A82CE0101960E9469052896EAE0DF
:100A30000C948412EF92FF920F931F937B018C0111
:100A400080E0E81680E0F80681E0080780E01807FB
:100A500088F48FEFE816F1040105110531F028F054
:100A600088E090E0A0E0B0E017C080E090E0A0E077
:100A7000B0E012C080E0E81680E0F80680E00807E9
:100A800081E0180728F088E190E0A0E0B0E004C021
:100A900080E190E0A0E0B0E020E230E040E050E013
:100AA000281B390B4A0B5B0B04C016950795F7946E
:100AB000E7948A95D2F7F701E456FF4F8081281B0F
:100AC000310941095109C9011F910F91FF90EF9020
:100AD0000895DF92EF92FF920F931F93FC01E48041
:100AE000F58006811781D1808081823048F480E0D2
:100AF00090E0A0E1B0E0E82AF92A0A2B1B2BA5C060
:100B0000843009F49FC0823021F4EE24FF24870151
:100B100005C0E114F1040105110519F4E0E0F0E06D
:100B200096C0628173819FEF623879070CF05BC0D9
:100B300022E83FEF261B370B2A3131052CF020E04D
:100B400030E040E050E02AC0B801A701022E04C006
:100B500076956795579547950A94D2F781E090E08E
:100B6000A0E0B0E004C0880F991FAA1FBB1F2A9500
:100B7000D2F70197A109B1098E219F21A023B123AA
:100B80000097A105B10521F081E090E0A0E0B0E080
:100B90009A01AB01282B392B4A2B5B2BDA01C901B7
:100BA0008F779070A070B07080349105A105B10569
:100BB00039F427FF09C0205C3F4F4F4F5F4F04C0FF
:100BC000215C3F4F4F4F5F4FE0E0F0E02030A0E06E
:100BD0003A07A0E04A07A0E45A0710F0E1E0F0E08D
:100BE00079018A0127C06038710564F5FB01E1587D
:100BF000FF4FD801C7018F779070A070B07080341C
:100C00009105A105B10539F4E7FE0DC080E490E03F
:100C1000A0E0B0E004C08FE390E0A0E0B0E0E80E18
:100C2000F91E0A1F1B1F17FF05C016950795F7949D
:100C3000E794319687E016950795F794E7948A959F
:100C4000D1F705C0EE24FF248701EFEFF0E06E2F0F
:100C5000679566276795902F9F77D794DD24D79463
:100C60008E2F8695492F462B582F5D29B701CA0133
:100C70001F910F91FF90EF90DF900895FC01DB0131
:100C8000408151812281622F6F7770E0221F2227DD
:100C9000221F9381892F880F822B282F30E0991FE4
:100CA0009927991F11969C93119721153105A9F544
:100CB000411551056105710511F482E037C082E8E4
:100CC0009FEF13969C938E9312979A01AB0167E066
:100CD000220F331F441F551F6A95D1F783E08C9371
:100CE0000DC0220F331F441F551F12968D919C91EA
:100CF0001397019713969C938E931297203080E060
:100D0000380780E0480780E4580758F314962D937D
:100D10003D934D935C93179708952F3F310579F4D8
:100D2000411551056105710519F484E08C9308950E
:100D300064FF03C081E08C9312C01C9210C02F5737
:100D4000304013963C932E93129783E08C9387E068
:100D5000440F551F661F771F8A95D1F7706414964C
:100D60004D935D936D937C93179708951F93DC01CA
:100D7000FB019C91923008F447C08081823008F4D6
:100D800043C0943051F411961C91843099F58181BF
:100D9000682F70E0611B71093FC0843021F09230F0
:100DA00031F48230B9F18181882389F12DC0119607
:100DB0001C9111978230F1F081811817D9F41296A5
:100DC0002D913C911397828193818217930794F020
:100DD00028173907BCF014968D919D910D90BC9108
:100DE000A02D2481358146815781281739074A076C
:100DF0005B0718F4112341F00AC082179307A40778
:100E0000B50740F4112319F061E070E005C06FEF01
:100E10007FEF02C060E070E0CB011F910895DF9387
:100E2000CF93CDB7DEB7E2E5F0E0108281E063E07A
:100E300041E00E943307A3E5B0E0E3E5F0E0808104
:100E40008D668C93CF91DF910895DF93CF930F92AE
:100E5000CDB7DEB78983ECE5F0E0898180830F9020
:100E6000CF91DF910895DF93CF9300D00F92CDB74C
:100E7000DEB789836A834B838A81883008F051C04A
:100E80008981843008F04DC08B81813029F58981BA
:100E9000882F90E0880F991FFC01E456FE4FA08137
:100EA000B1818981882F90E0880F991FFC01E45659
:100EB000FE4F0190F081E02D8081482F8A81282FFC
:100EC00030E081E090E0022E02C0880F991F0A9462
:100ED000E2F7842B8C9325C08981882F90E0880FBE
:100EE000991FFC01E456FE4FA081B1818981882FB2
:100EF00090E0880F991FFC01E456FE4F0190F081AD
:100F0000E02D8081482F8A81282F30E081E090E019
:100F1000022E02C0880F991F0A94E2F7809584235D
:100F20008C930F900F900F90CF91DF910895DF93E6
:100F3000CF9300D00F92CDB7DEB789836A834B83FE
:100F40008A81883008F051C08981843008F04DC012
:100F50008B81813029F58981882F90E0880F991F36
:100F6000FC01EC55FE4FA081B1818981882F90E072
:100F7000880F991FFC01EC55FE4F0190F081E02D88
:100F80008081482F8A81282F30E081E090E0022E76
:100F900002C0880F991F0A94E2F7842B8C9325C016
:100FA0008981882F90E0880F991FFC01EC55FE4F36
:100FB000A081B1818981882F90E0880F991FFC0161
:100FC000EC55FE4F0190F081E02D8081482F8A8101
:100FD000282F30E081E090E0022E02C0880F991F98
:100FE0000A94E2F7809584238C930F900F900F90D2
:100FF000CF91DF910895DF93CF9300D00F92CDB7BB
:10100000DEB789836A838A81883018F489818430C5
:1010100018F04FEF4B8320C08981882F90E0880F14
:10102000991FFC01E455FE4F0190F081E02D808175
:10103000282F30E08A81882F90E0A90102C05595C1
:1010400047958A95E2F7CA0181709070882319F05C
:1010500051E05B8301C01B828B810F900F900F903A
:10106000CF91DF910895DF93CF9300D0CDB7DEB756
:1010700089836A838981843068F48981882F90E02C
:10108000880F991FFC01E456FE4F0190F081E02D7E
:101090008A8180830F900F90CF91DF910895DF9325
:1010A000CF9300D0CDB7DEB789836A83898184303E
:1010B00068F48981882F90E0880F991FFC01EC5516
:1010C000FE4F0190F081E02D8A8180830F900F9078
:1010D000CF91DF910895DF93CF9300D0CDB7DEB7E6
:1010E00089838981843018F08FEF8A830DC08981CC
:1010F000882F90E0880F991FFC01E455FE4F019066
:10110000F081E02D80818A838A810F900F90CF91AA
:10111000DF910895DF93CF93CDB7DEB7E7E2F0E03C
:1011200080EC8083E6E2F0E087E8808380E061E0A5
:1011300040E00E94330780E060E040E00E94330717
:10114000CF91DF910895DF93CF930F92CDB7DEB7A4
:101150008983A7E2B0E0E7E2F0E08081982F907EFB
:1011600089818770892B8C93A6E2B0E0E6E2F0E0FB
:10117000808180648C93E6E2F0E08081882F90E0AB
:10118000807190700097B9F3A6E2B0E0E6E2F0E07B
:10119000808180618C93E4E2F0E0808191810F9006
:1011A000CF91DF910895DF93CF93CDB7DEB781E084
:1011B00060E041E00E94330781E061E041E00E948D
:1011C000330781E063E041E00E94330781E060E0A3
:1011D00040E00E94970781E061E040E00E949707AD
:1011E0000E940F0780E00E942507CF91DF910895AC
:1011F000DF93CF9300D000D00F92CDB7DEB78A83B4
:101200006B838A81282F30E03D832C838C819D81E4
:1012100081309105A1F02C813D8122303105D1F042
:101220008C819D81009701F581E060E040E00E94A3
:10123000970781E061E040E00E94970715C081E0D8
:1012400060E041E00E94970781E061E040E00E9499
:1012500097070AC081E060E040E00E94970781E0C4
:1012600061E041E00E9497078B81482F50E0CA015E
:101270009C01220F331FC9019695982F88279795B7
:101280008795821B930B840F951F24E630E0B901EC
:101290000E942A12CB01898389810E9425070F9021
:1012A0000F900F900F900F90CF91DF910895DF93E3
:1012B000CF9300D0CDB7DEB78A838A81883238F0E9
:1012C00081E08983898164E60E94F8082CC08A81C4
:1012D000833250F08A81883238F481E089838981B1
:1012E0006BE40E94F8081FC08A818E3150F08A8119
:1012F000833238F481E08983898162E30E94F808AF
:1013000012C08A81893150F08A818E3138F481E0AF
:101310008983898169E10E94F80805C01982898161
:1013200060E00E94F80889810F900F90CF91DF91C3
:101330000895DF93CF9300D00F92CDB7DEB71B8215
:101340001A82198281E00E94A3089A838983898185
:101350009A81CC01A0E0B0E026E930E040E050E026
:10136000BC01CD010E940B12DC01CB01BC01CD01FF
:101370000E94A104DC01CB01BC01CD012AE037EDC4
:1013800043E250E40E941702DC01CB01BC01CD0115
:1013900020E030ED4FEB54E40E941103DC01CB015F
:1013A000BC01CD010E944100DC01CB018B838B810C
:1013B0000F900F900F90CF91DF910895DF93CF930F
:1013C000CDB7DEB781E065E041E00E94330781E000
:1013D00066E041E00E94330781E067E041E00E945F
:1013E000330781E065E041E00E94970781E066E015
:1013F00041E00E94970781E067E041E00E94970783
:10140000CF91DF910895DF93CF9300D00F92CDB7A6
:10141000DEB789838981282F30E03B832A838A8144
:101420009B818130910579F02A813B812230310501
:1014300081F08A819B81009789F481E065E041E039
:101440000E9497070BC081E066E041E00E94970789
:1014500005C081E067E041E00E9497070F900F9080
:101460000F90CF91DF910895DF93CF9300D00F922B
:10147000CDB7DEB789838981282F30E03B832A836B
:101480008A819B818130910579F02A813B812230CC
:10149000310581F08A819B81009789F481E065E0C4
:1014A00040E00E9497070BC081E066E040E00E94A8
:1014B000970705C081E067E040E00E9497070F9022
:1014C0000F900F90CF91DF910895DF93CF9300D0CD
:1014D000CDB7DEB79A83898389819A818F30910550
:1014E00050F480E00E94030A81E00E94030A82E037
:1014F0000E94030A31C089819A818F30910578F06A
:1015000089819A818233910550F480E00E94030A18
:1015100081E00E94030A82E00E94340A1DC0898192
:101520009A818233910578F089819A818634910578
:1015300050F480E00E94030A81E00E94340A82E0B5
:101540000E94340A09C080E00E94340A81E00E94AF
:10155000340A82E00E94340A0F900F90CF91DF91FD
:101560000895DF93CF9300D000D0CDB7DEB780E0F1
:101570000E94A3089C838B838B819C81CC01A0E07B
:10158000B0E024E630E040E050E0BC01CD010E9434
:101590000B12DC01CB012FEF33E040E050E0BC0147
:1015A000CD010E943E12DA01C9019A8389838981A3
:1015B0009A810F900F900F900F90CF91DF91089527
:1015C000DF93CF93CDB7DEB72E970FB6F894DEBF7B
:1015D0000FBECDBF83E060E041E00E94330783E0AF
:1015E00061E041E00E94330780E090E0A0EAB1E4CE
:1015F0008B879C87AD87BE876B857C858D859E8517
:1016000020E030E04AE755E40E941702DC01CB01FC
:101610008F839887A987BA876F81788589859A850E
:1016200020E030E040E85FE30E941D0488232CF4B2
:1016300081E090E09E838D833FC06F8178858985AE
:101640009A8520E03FEF4FE757E40E94BD0318164C
:101650004CF56B857C858D859E8520E030E040E2F1
:1016600051E40E941702DC01CB01BC01CD010E94B4
:101670004100DC01CB019E838D830FC080E991E0A6
:101680009C838B838B819C810197F1F79C838B8357
:101690008D819E8101979E838D838D819E81009790
:1016A00069F714C06F81788589859A850E94410009
:1016B000DC01CB019E838D838D819E819A838983FA
:1016C00089819A810197F1F79A83898382E06FEF8C
:1016D0000E94330888E30E947C0B8CE00E947C0B04
:1016E00081E00E947C0B2E960FB6F894DEBF0FBEF1
:1016F000CDBFCF91DF910895DF93CF93CDB7DEB704
:10170000E9970FB6F894DEBF0FBECDBF89AF83E077
:1017100060E040E00E94970780E090E0A0E8BFE32F
:101720008DAB9EABAFABB8AF6DA97EA98FA998ADBD
:1017300020E030E04AE755E40E941702DC01CB01CB
:1017400089AB9AABABABBCAB69A97AA98BA99CA9B5
:1017500020E030E040E85FE30E941D0488232CF481
:1017600081E090E098AB8FA73FC069A97AA98BA9C7
:101770009CA920E03FEF4FE757E40E94BD031816F5
:101780004CF56DA97EA98FA998AD20E030E040E22C
:1017900051E40E941702DC01CB01BC01CD010E9483
:1017A0004100DC01CB0198AB8FA70FC080E991E02D
:1017B0009EA78DA78DA59EA50197F1F79EA78DA742
:1017C0008FA598A9019798AB8FA78FA598A9009787
:1017D00069F714C069A97AA98BA99CA90E94410044
:1017E000DC01CB0198AB8FA78FA598A99CA78BA7ED
:1017F0008BA59CA50197F1F79CA78BA783E061E0DF
:1018000041E00E94970780E090E0A0E8BFE38FA34B
:1018100098A7A9A7BAA76FA178A589A59AA520E03E
:1018200030E04AE755E40E941702DC01CB018BA3AC
:101830009CA3ADA3BEA36BA17CA18DA19EA120E022
:1018400030E040E85FE30E941D0488232CF481E02F
:1018500090E09AA389A33FC06BA17CA18DA19EA11A
:1018600020E03FEF4FE757E40E94BD0318164CF508
:101870006FA178A589A59AA520E030E040E251E467
:101880000E941702DC01CB01BC01CD010E94410086
:10189000DC01CB019AA389A30FC080E991E098A352
:1018A0008F8F8F8D98A10197F1F798A38F8F89A1C2
:1018B0009AA101979AA389A389A19AA1009769F790
:1018C00014C06BA17CA18DA19EA10E944100DC01EE
:1018D000CB019AA389A389A19AA19E8F8D8F8D8D0B
:1018E0009E8D0197F1F79E8F8D8F82E069AD0E94EA
:1018F0004F0880E090E0A0E8BFE3898F9A8FAB8F1C
:10190000BC8F698D7A8D8B8D9C8D20E030E04AE70D
:1019100055E40E941702DC01CB018D8B9E8BAF8BAF
:10192000B88F6D897E898F89988D20E030E040E8FE
:101930005FE30E941D0488232CF481E090E09C8BDF
:101940008B8B3FC06D897E898F89988D20E03FEF1A
:101950004FE757E40E94BD0318164CF5698D7A8D48
:101960008B8D9C8D20E030E040E251E40E94170214
:10197000DC01CB01BC01CD010E944100DC01CB01A7
:101980009C8B8B8B0FC080E991E09A8B898B898926
:101990009A890197F1F79A8B898B8B899C8901979A
:1019A0009C8B8B8B8B899C89009769F714C06D8900
:1019B0007E898F89988D0E944100DC01CB019C8B30
:1019C0008B8B8B899C89988B8F878F8598890197C2
:1019D000F1F7988B8F8783E061E040E00E949707E2
:1019E00080E090E0A0E8BFE38B879C87AD87BE874F
:1019F0006B857C858D859E8520E030E04AE755E447
:101A00000E941702DC01CB018F839887A987BA87D0
:101A10006F81788589859A8520E030E040E85FE332
:101A20000E941D0488232CF481E090E09E838D8326
:101A30003FC06F81788589859A8520E03FEF4FE729
:101A400057E40E94BD0318164CF56B857C858D8587
:101A50009E8520E030E040E251E40E941702DC0164
:101A6000CB01BC01CD010E944100DC01CB019E8372
:101A70008D830FC080E991E09C838B838B819C8157
:101A80000197F1F79C838B838D819E8101979E83C3
:101A90008D838D819E81009769F714C06F81788551
:101AA00089859A850E944100DC01CB019E838D834C
:101AB0008D819E819A83898389819A810197F1F72B
:101AC0009A838983E9960FB6F894DEBF0FBECDBF27
:101AD000CF91DF910895DF93CF93CDB7DEB7E9972C
:101AE0000FB6F894DEBF0FBECDBF89AF83E060E0D4
:101AF00041E00E94970780E090E0A0E8BFE38DAB53
:101B00009EABAFABB8AF6DA97EA98FA998AD20E011
:101B100030E04AE755E40E941702DC01CB0189ABB3
:101B20009AABABABBCAB69A97AA98BA99CA920E005
:101B300030E040E85FE30E941D0488232CF481E03C
:101B400090E098AB8FA73FC069A97AA98BA99CA9FF
:101B500020E03FEF4FE757E40E94BD0318164CF515
:101B60006DA97EA98FA998AD20E030E040E251E454
:101B70000E941702DC01CB01BC01CD010E94410093
:101B8000DC01CB0198AB8FA70FC080E991E09EA745
:101B90008DA78DA59EA50197F1F79EA78DA78FA56F
:101BA00098A9019798AB8FA78FA598A9009769F777
:101BB00014C069A97AA98BA99CA90E944100DC01E3
:101BC000CB0198AB8FA78FA598A99CA78BA78BA5B6
:101BD0009CA50197F1F79CA78BA783E061E041E00A
:101BE0000E94970780E090E0A0E8BFE38FA398A74A
:101BF000A9A7BAA76FA178A589A59AA520E030E08A
:101C00004AE755E40E941702DC01CB018BA39CA399
:101C1000ADA3BEA36BA17CA18DA19EA120E030E06D
:101C200040E85FE30E941D0488232CF481E090E0EB
:101C30009AA389A33FC06BA17CA18DA19EA120E0A6
:101C40003FEF4FE757E40E94BD0318164CF56FA114
:101C500078A589A59AA520E030E040E251E40E94F1
:101C60001702DC01CB01BC01CD010E944100DC0167
:101C7000CB019AA389A30FC080E991E098A38F8F2D
:101C80008F8D98A10197F1F798A38F8F89A19AA1C1
:101C900001979AA389A389A19AA1009769F714C013
:101CA0006BA17CA18DA19EA10E944100DC01CB0112
:101CB0009AA389A389A19AA19E8F8D8F8D8D9E8DC8
:101CC0000197F1F79E8F8D8F82E069AD0E944F08DA
:101CD00080E090E0A0E8BFE3898F9A8FAB8FBC8F44
:101CE000698D7A8D8B8D9C8D20E030E04AE755E43C
:101CF0000E941702DC01CB018D8B9E8BAF8BB88FBE
:101D00006D897E898F89988D20E030E040E85FE31F
:101D10000E941D0488232CF481E090E09C8B8B8B27
:101D20003FC06D897E898F89988D20E03FEF4FE716
:101D300057E40E94BD0318164CF5698D7A8D8B8D82
:101D40009C8D20E030E040E251E40E941702DC016B
:101D5000CB01BC01CD010E944100DC01CB019C8B79
:101D60008B8B0FC080E991E09A8B898B89899A8946
:101D70000197F1F79A8B898B8B899C8901979C8BB2
:101D80008B8B8B899C89009769F714C06D897E893C
:101D90008F89988D0E944100DC01CB019C8B8B8B3D
:101DA0008B899C89988B8F878F8598890197F1F70C
:101DB000988B8F8783E061E040E00E94970780E086
:101DC00090E0A0E8BFE38B879C87AD87BE876B85DB
:101DD0007C858D859E8520E030E04AE755E40E94B1
:101DE0001702DC01CB018F839887A987BA876F819F
:101DF000788589859A8520E030E040E85FE30E949D
:101E00001D0488232CF481E090E09E838D833FC0E5
:101E10006F81788589859A8520E03FEF4FE757E409
:101E20000E94BD0318164CF56B857C858D859E85BB
:101E300020E030E040E251E40E941702DC01CB01D7
:101E4000BC01CD010E944100DC01CB019E838D834A
:101E50000FC080E991E09C838B838B819C810197EB
:101E6000F1F79C838B838D819E8101979E838D8367
:101E70008D819E81009769F714C06F81788589856F
:101E80009A850E944100DC01CB019E838D838D8168
:101E90009E819A83898389819A810197F1F79A8338
:101EA0008983E9960FB6F894DEBF0FBECDBFCF9100
:101EB000DF910895DF93CF9300D00F92CDB7DEB7B7
:101EC0009B838A8319820EC08981282F30E08A8102
:101ED0009B81FC01E20FF31F80810E946B0D8981C1
:101EE0008F5F89838981282F30E08A819B81FC0163
:101EF000E20FF31F8081882339F70F900F900F9026
:101F0000CF91DF910895DF93CF93CDB7DEB72797B9
:101F10000FB6F894DEBF0FBECDBF8E836F831A82DB
:101F200080E48B8380E18C8380E58D838E81282FF4
:101F300030E0CE010296FC01E20FF31F90818F8109
:101F4000890F8983898180680E947C0B27960FB650
:101F5000F894DEBF0FBECDBFCF91DF910895DF9320
:101F6000CF9300D000D0CDB7DEB789836A835C837E
:101F70004B8389816A810E94830F8B819C810E949F
:101F80005A0F0F900F900F900F90CF91DF910895FF
:101F9000DF93CF93CDB7DEB764970FB6F894DEBF6B
:101FA0000FBECDBF698B7A8B8B8B9C8B8DB79EB709
:101FB00008970FB6F8949EBF0FBE8DBFEDB7FEB762
:101FC0003196CE0101969183808380E690E09383E1
:101FD000828389899A89AB89BC8984839583A68306
:101FE000B7830E9497128DB79EB708960FB6F894E4
:101FF0009EBF0FBE8DBFCE0101960E945A0F649600
:102000000FB6F894DEBF0FBECDBFCF91DF9108951C
:10201000DF93CF93CDB7DEB72E970FB6F894DEBF20
:102020000FBECDBF81E00E947C0B80E090E0A0E07D
:10203000B0E48B879C87AD87BE876B857C858D855B
:102040009E8520E030E04AE755E40E941702DC015B
:10205000CB018F839887A987BA876F817885898517
:102060009A8520E030E040E85FE30E941D04882369
:102070002CF481E090E09E838D833FC06F81788552
:1020800089859A8520E03FEF4FE757E40E94BD0322
:1020900018164CF56B857C858D859E8520E030E09B
:1020A00040E251E40E941702DC01CB01BC01CD01EA
:1020B0000E944100DC01CB019E838D830FC080E92B
:1020C00091E09C838B838B819C810197F1F79C83AA
:1020D0008B838D819E8101979E838D838D819E81CF
:1020E000009769F714C06F81788589859A850E9469
:1020F0004100DC01CB019E838D838D819E819A837B
:10210000898389819A810197F1F79A83898380E095
:1021100060E00E94830F2E960FB6F894DEBF0FBECC
:10212000CDBFCF91DF910895DF93CF9300D000D042
:102130000F92CDB7DEB78B837D836C838B818770E5
:102140008B838B81882F90E0880F991F880F991FB0
:10215000880F991F80640E947C0B1A8219820FC01D
:1021600029813A818C819D81FC01E20FF31F8081DE
:102170000E946B0D89819A8101969A838983898156
:102180009A818830910564F30F900F900F900F9013
:102190000F90CF91DF910895DF93CF93CDB7DEB746
:1021A00080E063E00E94830F84E690E00E945A0F73
:1021B00081E060E00E94830F8CE690E00E945A0F5D
:1021C00081E068E00E94830F82E790E00E945A0F4E
:1021D000CF91DF910895DF93CF9300D00F92CDB7C9
:1021E000DEB789836A834B8380E06AE00E94830FB5
:1021F0008981882329F48BE790E00E945A0F04C05C
:102200008FE790E00E945A0F81E065E00E94830F03
:102210008A81882F90E0A0E0B0E0BC01CD010E944F
:10222000C80F8A81843618F480E20E946B0D81E029
:102230006CE00E94830F8B81882F90E0A0E0B0E0DB
:10224000BC01CD010E94C80F8B81843618F480E256
:102250000E946B0D0F900F900F90CF91DF9108951A
:10226000DF93CF93CDB7DEB780E060E00E94830FAD
:1022700083E890E00E945A0FCF91DF9108950F9369
:10228000DF93CF9300D000D000D0CDB7DEB79A83D4
:1022900089836B834C832D830E838B81813051F432
:1022A000E981FA818081882311F40E9408100E943C
:1022B00030110EC0E981FA818081813021F40E94C1
:1022C00008100E94CC108C816D814E810E94EB1011
:1022D000E981FA818B81808326960FB6F894DEBF60
:1022E0000FBECDBFCF91DF910F910895DF93CF93B4
:1022F000CDB7DEB783E062E040E00E943307CF91C4
:10230000DF910895DF93CF930F92CDB7DEB783E0CF
:1023100062E00E94FB07898389810F90CF91DF9152
:102320000895DF93CF930F92CDB7DEB7898389816C
:10233000882319F00E94B41102C00E94C0110F90AE
:10234000CF91DF910895DF93CF93CDB7DEB783E0D0
:1023500063E041E00E94330783E063E040E00E94D5
:102360009707CF91DF910895DF93CF93CDB7DEB775
:1023700083E063E041E00E949707CF91DF910895E9
:10238000DF93CF93CDB7DEB783E063E040E00E94F8
:102390009707CF91DF9108950F93DF93CF93CDB738
:1023A000DEB727970FB6F894DEBF0FBECDBF0E94F1
:1023B000E00A0E948A080E94D3080E94DE090E9457
:1023C00076110E94A3110E94CC101D821C821F82D4
:1023D0001E821B821A8219820E9499098B830E9495
:1023E000B10A9A8389838B810E9457098D830E9449
:1023F00082118C8389819A810E94650ACE0106969A
:1024000039816C814D812B81032F0E943F118C817A
:102410000E949111E1CF629FD001739FF001829FD2
:10242000E00DF11D649FE00DF11D929FF00D839F63
:10243000F00D749FF00D659FF00D9927729FB00D00
:10244000E11DF91F639FB00DE11DF91FBD01CF0113
:1024500011240895AA1BBB1B51E107C0AA1FBB1F73
:10246000A617B70710F0A61BB70B881F991F5A9520
:10247000A9F780959095BC01CD010895A1E21A2E8F
:10248000AA1BBB1BFD010DC0AA1FBB1FEE1FFF1F18
:10249000A217B307E407F50720F0A21BB30BE40B68
:1024A000F50B661F771F881F991F1A9469F76095AF
:1024B0007095809590959B01AC01BD01CF01089569
:1024C0002F923F924F925F926F927F928F929F9244
:1024D000AF92BF92CF92DF92EF92FF920F931F9332
:1024E000CF93DF93CDB7DEB7CA1BDB0B0FB6F894E3
:1024F000DEBF0FBECDBF09942A88398848885F8423
:102500006E847D848C849B84AA84B984C884DF8093
:10251000EE80FD800C811B81AA81B981CE0FD11D77
:102520000FB6F894DEBF0FBECDBFED010895AEE04B
:10253000B0E0EDE9F2E10C946E120D891E8986E09F
:102540008C831A8309838FEF9FE79E838D839E017F
:10255000275E3F4FCE0101966F89788DA9010E94B9
:10256000BB122F813885020F131FF80110822E969F
:10257000E4E00C948A12ABE0B0E0E1ECF2E10C9400
:1025800060123C012B015A01FC01178216828381E3
:1025900081FD03C06FEF7FEFC6C19AE0892E1E0157
:1025A0000894211C311CF3012381F20123FD859144
:1025B00023FF81912F01882309F4B2C1853239F4B8
:1025C00023FD859123FF81912F01853229F490E02D
:1025D000B3010E94AE14E7CF982FFF24EE24992474
:1025E000FFE1FF15D0F09B3269F09C3228F4903265
:1025F00059F0933291F40EC09D3249F0903369F452
:1026000041E024C052E0F52A84E0F82A28C098E08E
:10261000F92A25C0E0E1FE2A22C0F7FC29C0892F53
:1026200080538A3070F4F6FE05C0989C902C1124DB
:10263000980E15C0E89CE02C1124E80EF0E2FF2A69
:102640000EC09E3229F4F6FC6BC140E4F42A07C0A8
:102650009C3619F450E8F52A02C0983649F4F20184
:1026600023FD959123FF91912F01992309F0B8CF74
:10267000892F8554833018F08052833038F444E039
:1026800050E0A40EB51E5FE359830FC0933631F0BE
:10269000933779F0933509F056C020C0F501808159
:1026A000898342E050E0A40EB51E610101E010E014
:1026B00012C0F501C080D180F6FC03C06FEF7FEF40
:1026C00002C0692D70E042E050E0A40EB51EC601C4
:1026D0000E94A3148C015FE7F52214C0F501C080AD
:1026E000D180F6FC03C06FEF7FEF02C0692D70E070
:1026F00042E050E0A40EB51EC6010E9498148C0161
:1027000050E8F52AF3FE07C01AC080E290E0B3015A
:102710000E94AE14EA948E2D90E008171907A8F3D2
:102720000EC0F601F7FC8591F7FE81916F0190E0F4
:10273000B3010E94AE14E110EA940150104001155B
:10274000110579F7EAC0943611F0993669F5F7FE6C
:1027500008C0F501208131814281538184E090E0FD
:102760000AC0F501808191819C01442737FD409585
:10277000542F82E090E0A80EB91E9FE6F92257FF81
:1027800009C050954095309521953F4F4F4F5F4F71
:10279000E0E8FE2ACA01B901A1012AE030E00E9466
:1027A000DA14D82ED21840C0953729F41F2D1F7E79
:1027B0002AE030E01DC01F2D197F9F3661F0903751
:1027C00020F4983509F0ACC00FC0903739F0983735
:1027D00009F0A6C004C028E030E00AC0106114FD72
:1027E000146020E130E004C014FD166020E132E006
:1027F00017FF08C0F501608171818281938144E0F7
:1028000050E008C0F50180819181BC0180E090E03A
:1028100042E050E0A40EB51EA1010E94DA14D82EA9
:10282000D2188FE7F82EF122F6FE0BC05EEFF522EC
:10283000D91438F4F4FE07C0F2FC05C08FEEF8227C
:1028400002C01D2D01C0192DF4FE0DC0FE01ED0DBD
:10285000F11D8081803319F499EEF92208C01F5FC1
:10286000F2FE05C003C08F2D867809F01F5F0F2D83
:10287000F3FC14C0F0FE0FC01E1510F09D2C0BC011
:102880009D2C9E0C911A1E2D06C080E290E0B30193
:102890000E94AE141F5F1E15C0F304C01E1510F475
:1028A000E11A01C0EE2404FF0FC080E390E0B30101
:1028B0000E94AE1402FF1DC001FD03C088E790E036
:1028C0000EC088E590E00BC0802F867891F001FF64
:1028D00002C08BE201C080E2F7FC8DE290E0B30120
:1028E0000E94AE1406C080E390E0B3010E94AE14D3
:1028F0009A94D914C0F3DA94F101ED0DF11D8081A1
:1029000090E0B3010E94AE14DD20A9F706C080E27A
:1029100090E0B3010E94AE14EA94EE20C1F743CEDA
:10292000F30166817781CB012B96E2E10C947C1256
:10293000FC010590615070400110D8F7809590958A
:102940008E0F9F1F0895FC0161507040019001108F
:10295000D8F7809590958E0F9F1F08950F931F9322
:10296000CF93DF938C01EB018B8181FF1BC082FF32
:102970000DC02E813F818C819D812817390764F419
:10298000E881F9810193F983E88306C0E885F98538
:10299000802F0995892B31F48E819F8101969F8329
:1029A0008E8302C00FEF1FEFC801DF91CF911F91FF
:1029B0000F910895FA01AA27283051F1203181F1B1
:1029C000E8946F936E7F6E5F7F4F8F4F9F4FAF4F37
:1029D000B1E03ED0B4E03CD0670F781F891F9A1F4A
:1029E000A11D680F791F8A1F911DA11D6A0F711DFE
:1029F000811D911DA11D20D009F468943F912AE00A
:102A0000269F11243019305D3193DEF6CF010895F1
:102A1000462F4770405D4193B3E00FD0C9F7F6CF22
:102A2000462F4F70405D4A3318F0495D31FD4052EA
:102A3000419302D0A9F7EACFB4E0A6959795879580
:102A400077956795BA95C9F700976105710508955F
:102A50009B01AC010A2E069457954795379527950B
:102A6000BA95C9F7620F731F841F951FA01D0895A3
:042A7000F894FFCF08
:102A7400256C750046414E204953200054656D7005
:102A84003D004C44523D20202025004F4646004F37
:102A94004E2000437269746963616C20416C6572F5
:102AA4007421210000000000000000000001020267
:102AB40003030303040404040404040405050505D2
:102AC40005050505050505050505050506060606AE
:102AD4000606060606060606060606060606060692
:102AE400060606060606060606060606070707077E
:102AF4000707070707070707070707070707070762
:102B04000707070707070707070707070707070751
:102B14000707070707070707070707070707070741
:102B2400070707070707070707070707080808082D
:102B34000808080808080808080808080808080811
:102B44000808080808080808080808080808080801
:102B540008080808080808080808080808080808F1
:102B640008080808080808080808080808080808E1
:102B740008080808080808080808080808080808D1
:102B840008080808080808080808080808080808C1
:102B940008080808080808080808080808080808B1
:102BA4000808080808080808080808083A00370050
:102BB400340031003B003800350032003900360063
:042BC40033003000AA
:00000001FF
